{
    "contractName": "NFTCasino",
    "abi": [
        {
            "inputs": [],
            "stateMutability": "nonpayable",
            "type": "constructor"
        },
        {
            "inputs": [
                {
                    "internalType": "uint256",
                    "name": "depositID",
                    "type": "uint256"
                },
                {
                    "internalType": "uint256",
                    "name": "offerID",
                    "type": "uint256"
                }
            ],
            "name": "acceptOffer",
            "outputs": [],
            "stateMutability": "nonpayable",
            "type": "function"
        },
        {
            "inputs": [
                {
                    "internalType": "uint256",
                    "name": "depositID",
                    "type": "uint256"
                }
            ],
            "name": "cancelDeposit",
            "outputs": [],
            "stateMutability": "nonpayable",
            "type": "function"
        },
        {
            "inputs": [
                {
                    "internalType": "uint256",
                    "name": "offerID",
                    "type": "uint256"
                }
            ],
            "name": "cancelOffer",
            "outputs": [],
            "stateMutability": "nonpayable",
            "type": "function"
        },
        {
            "inputs": [
                {
                    "internalType": "address",
                    "name": "contractAddress",
                    "type": "address"
                },
                {
                    "internalType": "uint256",
                    "name": "tokenId",
                    "type": "uint256"
                }
            ],
            "name": "createDeposit",
            "outputs": [],
            "stateMutability": "nonpayable",
            "type": "function"
        },
        {
            "inputs": [
                {
                    "internalType": "address",
                    "name": "nftContract",
                    "type": "address"
                },
                {
                    "internalType": "uint256",
                    "name": "tokenId",
                    "type": "uint256"
                },
                {
                    "internalType": "uint256",
                    "name": "toDepositID",
                    "type": "uint256"
                }
            ],
            "name": "createOffer",
            "outputs": [],
            "stateMutability": "nonpayable",
            "type": "function"
        },
        {
            "inputs": [
                {
                    "internalType": "address",
                    "name": "operator",
                    "type": "address"
                },
                {
                    "internalType": "address",
                    "name": "from",
                    "type": "address"
                },
                {
                    "internalType": "uint256",
                    "name": "tokenId",
                    "type": "uint256"
                },
                {
                    "internalType": "bytes",
                    "name": "",
                    "type": "bytes"
                }
            ],
            "name": "onERC721Received",
            "outputs": [
                {
                    "internalType": "bytes4",
                    "name": "",
                    "type": "bytes4"
                }
            ],
            "stateMutability": "nonpayable",
            "type": "function"
        },
        {
            "inputs": [],
            "name": "withdrawContractProfits",
            "outputs": [],
            "stateMutability": "nonpayable",
            "type": "function"
        },
        {
            "inputs": [
                {
                    "internalType": "uint256",
                    "name": "depositID",
                    "type": "uint256"
                },
                {
                    "internalType": "uint256",
                    "name": "offerID",
                    "type": "uint256"
                }
            ],
            "name": "withdrawPrize",
            "outputs": [],
            "stateMutability": "payable",
            "type": "function"
        }
    ],
    "bytecode": "608060405234801561001057600080fd5b50600080546001600160a01b03191633179055611222806100326000396000f3fe60806040526004361061007b5760003560e01c806381257bd51161004e57806381257bd514610118578063b6248dc414610138578063baa2602b1461014d578063ef706adf146101605761007b565b8063150b7a02146100805780631c6c7128146100b6578063442e501d146100d857806372fada5c146100f8575b600080fd5b34801561008c57600080fd5b506100a061009b366004610c8e565b610180565b6040516100ad9190610eba565b60405180910390f35b3480156100c257600080fd5b506100d66100d1366004610d53565b610191565b005b3480156100e457600080fd5b506100d66100f3366004610d28565b6104cc565b34801561010457600080fd5b506100d6610113366004610da7565b6107cd565b34801561012457600080fd5b506100d6610133366004610dbf565b6108eb565b34801561014457600080fd5b506100d6610971565b6100d661015b366004610dbf565b6109d8565b34801561016c57600080fd5b506100d661017b366004610da7565b610b4e565b630a85bd0160e11b95945050505050565b6040516331a9108f60e11b8152839033906001600160a01b03831690636352211e906101c19087906004016111ce565b60206040518083038186803b1580156101d957600080fd5b505afa1580156101ed573d6000803e3d6000fd5b505050506040513d601f19601f820116820180604052508101906102119190610c6b565b6001600160a01b0316146102405760405162461bcd60e51b815260040161023790610f80565b60405180910390fd5b60405163020604bf60e21b815230906001600160a01b0383169063081812fc9061026e9087906004016111ce565b60206040518083038186803b15801561028657600080fd5b505afa15801561029a573d6000803e3d6000fd5b505050506040513d601f19601f820116820180604052508101906102be9190610c6b565b6001600160a01b0316148061034c575060405163e985e9c560e01b81526001600160a01b0382169063e985e9c5906102fc9033903090600401610de0565b60206040518083038186803b15801561031457600080fd5b505afa158015610328573d6000803e3d6000fd5b505050506040513d601f19601f8201168201806040525081019061034c9190610d87565b6103685760405162461bcd60e51b815260040161023790611101565b806001600160a01b031663b88d4fde33308660405160200161038990610fc6565b6040516020818303038152906040526040518563ffffffff1660e01b81526004016103b79493929190610e1e565b600060405180830381600087803b1580156103d157600080fd5b505af11580156103e5573d6000803e3d6000fd5b505050506000338442446040516020016104029493929190610e94565b60408051808303601f19018152828252805160209182012060c0840183526001600160a01b039586168452818401978852338484019081526060850197885260006080860181815260a08701828152938252600294859052949020945185546001600160a01b0319908116918916919091178655985160018601555191840180549098169186169190911790965593516003820155925160049093018054945160ff1990951693151593909317610100600160a81b03191661010094909216939093021790555050565b6040516331a9108f60e11b8152829033906001600160a01b03831690636352211e906104fc9086906004016111ce565b60206040518083038186803b15801561051457600080fd5b505afa158015610528573d6000803e3d6000fd5b505050506040513d601f19601f8201168201806040525081019061054c9190610c6b565b6001600160a01b0316146105725760405162461bcd60e51b815260040161023790611187565b60405163020604bf60e21b815230906001600160a01b0383169063081812fc906105a09086906004016111ce565b60206040518083038186803b1580156105b857600080fd5b505afa1580156105cc573d6000803e3d6000fd5b505050506040513d601f19601f820116820180604052508101906105f09190610c6b565b6001600160a01b0316148061067e575060405163e985e9c560e01b81526001600160a01b0382169063e985e9c59061062e9033903090600401610de0565b60206040518083038186803b15801561064657600080fd5b505afa15801561065a573d6000803e3d6000fd5b505050506040513d601f19601f8201168201806040525081019061067e9190610d87565b61069a5760405162461bcd60e51b815260040161023790611143565b604051632142170760e11b81526001600160a01b038216906342842e0e906106ca90339030908790600401610dfa565b600060405180830381600087803b1580156106e457600080fd5b505af11580156106f8573d6000803e3d6000fd5b505050506000338342446040516020016107159493929190610e94565b60408051601f19818403018152828252805160209182012060a0840183526001600160a01b0395861684528382019687523384840190815260006060860181815260808701828152938252600194859052949020945185549088166001600160a01b0319918216178655975192850192909255905160028401805493511515600160a01b0260ff60a01b1992881694891694909417919091169290921790915551600390910180549190931693169290921790555050565b60008181526001602052604090206002810154600160a01b900460ff16156108075760405162461bcd60e51b815260040161023790610f10565b60028101546001600160a01b031633146108335760405162461bcd60e51b815260040161023790611079565b805460028201546001830154604051632142170760e11b81526001600160a01b03938416936342842e0e936108719330939290911691600401610dfa565b600060405180830381600087803b15801561088b57600080fd5b505af115801561089f573d6000803e3d6000fd5b50505060009283525050600160208190526040822080546001600160a01b03199081168255918101929092556002820180546001600160a81b0319169055600390910180549091169055565b6000828152600160209081526040808320848452600292839052922090820154600160a01b900460ff16156109325760405162461bcd60e51b815260040161023790610f10565b6000848152600160205260409020600201546001600160a01b0316331461096b5760405162461bcd60e51b8152600401610237906110be565b50505050565b6000546001600160a01b0316331461099b5760405162461bcd60e51b815260040161023790610ff6565b600080546040516001600160a01b03909116914780156108fc02929091818181858888f193505050501580156109d5573d6000803e3d6000fd5b50565b6000828152600160209081526040808320848452600290925290912066038d7ea4c68000341015610a1b5760405162461bcd60e51b815260040161023790610ecf565b60038201546001600160a01b03163314610a475760405162461bcd60e51b815260040161023790611042565b600481015461010090046001600160a01b03163314610a785760405162461bcd60e51b815260040161023790611042565b81546001830154604051632142170760e11b81526001600160a01b03909216916342842e0e91610aae9130913391600401610dfa565b600060405180830381600087803b158015610ac857600080fd5b505af1158015610adc573d6000803e3d6000fd5b505082546001840154604051632142170760e11b81526001600160a01b0390921693506342842e0e9250610b169130913391600401610dfa565b600060405180830381600087803b158015610b3057600080fd5b505af1158015610b44573d6000803e3d6000fd5b5050505050505050565b6000818152600260205260409020600481015460ff1615610b815760405162461bcd60e51b815260040161023790610f10565b60028101546001600160a01b03163314610bad5760405162461bcd60e51b815260040161023790610f3d565b805460028201546001830154604051632142170760e11b81526001600160a01b03938416936342842e0e93610beb9330939290911691600401610dfa565b600060405180830381600087803b158015610c0557600080fd5b505af1158015610c19573d6000803e3d6000fd5b50505060009283525050600260208190526040822080546001600160a01b03199081168255600182018490559181018054909216909155600381019190915560040180546001600160a81b0319169055565b600060208284031215610c7c578081fd5b8151610c87816111d7565b9392505050565b600080600080600060808688031215610ca5578081fd5b8535610cb0816111d7565b94506020860135610cc0816111d7565b935060408601359250606086013567ffffffffffffffff80821115610ce3578283fd5b818801915088601f830112610cf6578283fd5b813581811115610d04578384fd5b896020828501011115610d15578384fd5b9699959850939650602001949392505050565b60008060408385031215610d3a578182fd5b8235610d45816111d7565b946020939093013593505050565b600080600060608486031215610d67578283fd5b8335610d72816111d7565b95602085013595506040909401359392505050565b600060208284031215610d98578081fd5b81518015158114610c87578182fd5b600060208284031215610db8578081fd5b5035919050565b60008060408385031215610dd1578182fd5b50508035926020909101359150565b6001600160a01b0392831681529116602082015260400190565b6001600160a01b039384168152919092166020820152604081019190915260600190565b600060018060a01b0380871683526020818716818501528560408501526080606085015284519150816080850152825b82811015610e6a5785810182015185820160a001528101610e4e565b82811115610e7b578360a084870101525b5050601f01601f19169190910160a00195945050505050565b6001600160a01b0394909416845260208401929092526040830152606082015260800190565b6001600160e01b031991909116815260200190565b60208082526021908201527f596f75206d75737420706179206174206c6561737420302e30303120657468656040820152603960f91b606082015260800190565b60208082526013908201527213919508185b1c9958591e4819d85b589b1959606a1b604082015260600190565b60208082526023908201527f4f6e6c7920746865206f776e65722063616e2063616e63656c20746865206f666040820152623332b960e91b606082015260800190565b60208082526026908201527f4f6e6c7920746865204e4654206f776e65722063616e2063726561746520616e6040820152651037b33332b960d11b606082015260800190565b60208082526016908201527527232a21a0a9a4a7279722aa24102a2920a729a322a960511b604082015260600190565b6020808252602c908201527f4f6e6c792074686520636f6e7472616374206f776e65722063616e207769746860408201526b647261772070726f6669747360a01b606082015260800190565b6020808252601a908201527f596f752063616e277420776974686472617720746865204e4654000000000000604082015260600190565b60208082526025908201527f4f6e6c7920746865206f776e65722063616e2063616e63656c207468652064656040820152641c1bdcda5d60da1b606082015260800190565b60208082526023908201527f4f6e6c7920746865206f776e65722063616e2061636365707420746865206f666040820152623332b960e91b606082015260800190565b60208082526022908201527f4e4654206d75737420626520617070726f76656420746f206265206f66666572604082015261195960f21b606082015260800190565b60208082526024908201527f4e4654206d75737420626520617070726f76656420746f206265206465706f736040820152631a5d195960e21b606082015260800190565b60208082526027908201527f4f6e6c7920746865204e4654206f776e65722063616e2063726561746520612060408201526619195c1bdcda5d60ca1b606082015260800190565b90815260200190565b6001600160a01b03811681146109d557600080fdfea2646970667358221220ab7b64d8fe2e52205c318e957e5cdcca6a39ecc80caffbf55fe9ab715e6e27d864736f6c63430008000033",
    "sourcePath": "/home/mike/Documentos/Github/NFTCasino/contracts/NFTCasino.sol",
    "compiler": {
        "name": "solc",
        "version": "0.8.0+commit.c7dfd78e"
    },
    "functionHashes": {
        "acceptOffer(uint256,uint256)": "81257bd5",
        "cancelDeposit(uint256)": "72fada5c",
        "cancelOffer(uint256)": "ef706adf",
        "createDeposit(address,uint256)": "442e501d",
        "createOffer(address,uint256,uint256)": "1c6c7128",
        "onERC721Received(address,address,uint256,bytes)": "150b7a02",
        "withdrawContractProfits()": "b6248dc4",
        "withdrawPrize(uint256,uint256)": "baa2602b"
    },
    "gasEstimates": {
        "creation": {
            "codeDepositCost": "928400",
            "executionCost": "21803",
            "totalCost": "950203"
        },
        "external": {
            "acceptOffer(uint256,uint256)": "2304",
            "cancelDeposit(uint256)": "infinite",
            "cancelOffer(uint256)": "infinite",
            "createDeposit(address,uint256)": "infinite",
            "createOffer(address,uint256,uint256)": "infinite",
            "onERC721Received(address,address,uint256,bytes)": "infinite",
            "withdrawContractProfits()": "infinite",
            "withdrawPrize(uint256,uint256)": "infinite"
        }
    }
}